:03000000021BE7F9
:101BE70075C7AA75C75575FD5A75C7AA75C75575BF
:101BF700FDA5787FE4F6D8FD9000007FFF7E03E423
:0C1C0700F0A3DFFCDEFA758172021C4EB7
:03000B000225814A
:10258100C0E0C0F0C083C082C0D075D000C000C020
:1025910001C002C003C004C005C006C00712000E7E
:1025A100D007D006D005D004D003D002D001D0008E
:0B25B100D0D0D082D083D0F0D0E03238
:03001B000225BCFF
:1025BC00C0E0C0F0C083C082C0D075D000C000C0E5
:1025CC0001C002C003C004C005C006C0071226CE5D
:1025DC00D007D006D005D004D003D002D001D00053
:0B25EC00D0D0D082D083D0F0D0E032FD
:03002B00022507A4
:10250700C0E0C0F0C083C082C0D075D000C000C09A
:1025170001C002C003C004C005C006C007C2CF1275
:102527002957D007D006D005D004D003D002D00158
:0D253700D000D0D0D082D083D0F0D0E032E0
:062ACF00122273D2AF22B7
:102273007548C175498053C98F53C8FE43C980430C
:10228300C908122AD58F47AF477E007C007D2812EC
:102293000CB8C3E5499FF549E5489EF548AF49EFBA
:1022A30054FFF5CAE548FF7E008FCB75CC0075CD92
:0622B30000439B80D2CA2B
:0122B9002202
:101EB8007533C1753480539B7FC2CA122AD58F30BF
:101EC800AF307E007C007D28120CB8C3E5349FF546
:101ED80034E5339EF533AF34EF54FFF5CAE533FFED
:101EE8007E008FCBAFCD7E008E318F32E5327532DA
:101EF80000F531AFCC7E00EF2532F532EE3531F505
:101F080031C3E5329534E5319533401DE53424FF7E
:101F1800F532E53334FFF531E531FF7E00EF54FF4C
:0E1F2800F5CDAF32EF54FFF5CC439B80D2CA0B
:011F36002288
:0408F4004102D100EC
:021B30008F35EF
:101B3200A2AF9202C2AF75C7AA75C755439F01A251
:101B42000292AF75A63075A70075AF04A2AF9202DC
:101B5200C2AF75C7AA75C75543A401A20292AF8549
:101B6200AE3675A63175A700A2AF9202C2AF75C795
:101B7200AA75C75543A401A20292AF85AE37A2AFA0
:101B82009202C2AF75C7AA75C755539FFEA20292B1
:101B9200AFAF367E00EF25E0FFEE33FEE5375401AE
:101BA200FD7C00EF2DF539EE3CF538AF357E00C3F4
:101BB200E5399FF539E5389EF538AF39EF5401F52F
:101BC20037E538C313FEE53913FF8F3675C7AA759B
:101BD200C75585368475C7AA75C75585378590025E
:041BE200D1E535F024
:011BE60022DC
:062AD5009002D1E0FF2297
:0A2A580053B3FD43B402438E022283
:0A2A620053B3FD43B402538EFD226E
:1027FC00C283C280C292C28153B1F743B20853B1B3
:10280C00FE43B20153B3FB43B40453B1FD43B202D4
:01281C002299
:102770008F1FE51F120EF5278700278A01278D027C
:1027800027900300002792D28322D28022D2922265
:03279000D28122D1
:102793008F60E560120EF527AA0027AD0127B0026E
:1027A30027B303000027B5C28322C28022C292222C
:0327B300C28122BE
:1027B6008F61E561120EF527CD0027D00127D302E0
:1027C60027D603000027D8B28322B28022B29222F3
:0327D600B28122AB
:102387008F62E562120EF5239E0023A80123B20295
:1023970023BC03000023C62083047F0080027F0143
:1023A700222080047F0080027F01222092047F0088
:1023B70080027F01222081047F0080027F01227F2B
:0223C7000022F2
:10248B00C29053B3FE43B401A2AF920375C7AA75B2
:10249B00C75575910143B40175C7AA75C755759199
:1024AB0000A20392AF53DF3FC2DFD2DC20DCFD750D
:0D24BB00D10075D90975D40075DC03D2DF9E
:0124C80022F1
:042AEC0043DE04229F
:042AF00053DEFB2294
:10293F0053E8F043E80543B11053B2EF75F6004387
:08294F00F62043E101C2EF2272
:052AE700C2EFD2EE2257
:092A760030EF04C2EFD322C322A9
:1028F100AFC37E00EF75F010A4FFAEF0E5C2540F38
:0A290100FD7C00EE4CFEEF4DFF22BE
:072ABA0053B1BF53B2BF226C
:1028BB008F63E563120EF528C900000028D320862C
:0B28CB00047F0080027F01227F0122B9
:092A7F00C29553B3DF43B42022D9
:032B0000D2952249
:032B0300C2952256
:022987008F5669
:10298900122AD58F57E55765566008AF56121B3086
:03299900121EB853
:01299C002218
:07000300122AD58F64AF64DF
:01000A0022D3
:0F2A1B00C28553B1DF43B2205389F043890122B2
:0B2A4200758CFE758DE8D2A9D28C22A5
:072AC100C2A9C28CC28522EC
:0D000E00C28C758CFE758DE8D28CB28522F7
:1024C900C2AF75C7AA75C755439F0175C7AA75C716
:1024D9005543A50175AF2275A70275A60075AEFF14
:1024E90075C7AA75C75543A40175C7AA75C75553BA
:0E24F900A5FE75C7AA75C755539FFED2AF2228
:081D23008B298A2A892B8D2CE3
:101D2B00752E02752F00C2AF75C7AA75C755439F95
:101D3B000175C7AA75C75543A501752D00E52DC3C0
:101D4B00952C504AE52DC39480504375AF21AF2D90
:101D5B007E00EF252FFFEE352EFEEEFF7E00EF54BB
:101D6B00FFF5A7AF2FEF252DFFEF54FFF5A6AB29FE
:101D7B00AA2AA92BAF2D8F82758300120C69FF8FB6
:101D8B00AE75C7AA75C75543A401052D80AF75C79E
:101D9B00AA75C75553A5FE75C7AA75C755539FFEA0
:021DAB00D2AFB5
:011DAD002213
:08262F008B3A8A3B893C8D3D8A
:10263700753E00E53EC3953D5024E53EC39480506A
:102647001DAF3EEF90020093FFAB3AAA3BA93CAE09
:0E2657003E8E82758300EF120C96053E80D5F4
:012665002252
:0808F800033F00000001420073
:1029E80053890F438920758DBA758BBAD2ABD28EB5
:0129F80022BC
:1021DD008F588D59E559C313FFAE58743F2EF8A68D
:1021ED0007E558120EF5220000220E01221C0200F6
:1021FD00002229E542C3953F5003D38001C392804D
:10220D0022E542C395405003D38001C3929222E54B
:0D221D0042C395415003D38001C39281223A
:1026CE000542E542C3953F5003D38001C39280E596
:1026DE0042C395405003D38001C39292E542C39505
:0A26EE00415003D38001C392812202
:10281D00122ACF122AF4122AF81226F812001E12CA
:10282D002AC8122AFC12287E1219A912141780F830
:01283D002278
:10090000608C0214000000000000000000000000E5
:1009100000000000000000000000000000000000D7
:1009200000000000000000000000000000000000C7
:1009300000000000000000000000000000000000B7
:1009400000000000000000000000000000000000A7
:100950000000000000000000000000000000000097
:100960000000000000000000000000000000000087
:100970000000000000000000000000000000000077
:100980000000000000000000000000000000000067
:0B0990004102A0004402100000000023
:10295700900210120E827B017A0079007800120D26
:0829670083900210120E9A2267
:1019A9009002A0E0FFD3EF648094805003021A6490
:1019B900754300C3E543648094944003021A6EAFF3
:1019C90043EF3395E0FE90021875F007EF120ED73A
:1019D900EE75F007A42583F583120EE3C003C00258
:1019E900C0017B007A007900D082D083D0E06B708F
:1019F90008E965827003EA6583605AAF43EF33955E
:101A0900E0FE90021475F007EF120ED7EE75F0079D
:101A1900A42583F583120E82900210120E8EC31232
:101A29000E5E4031AF43EF3395E0FE90021875F03A
:101A390007EF120ED7EE75F007A42583F583120E72
:101A4900E38B448A458946AF43121C93AB44AA45AC
:101A5900A946120F1B05430219BC22900210120E4F
:051A6900A600000000D2
:011A6E002255
:0E1515008F198E188D178C168B1A8A1B891C45
:10152300751DFF7B007A007900C003C002C001ABC8
:101533001AAA1BA91CD082D083D0E06B7008E9657E
:10154300827003EA6583700302160F9002A0E0FF26
:10155300C3EF64809494400302160F751E00C3E525
:101563001E64809494400302160FAF1EEF3395E080
:10157300FE90021875F007EF120ED7EE75F007A470
:101583002583F583120EE3C003C002C0017B007AFA
:10159300007900D082D083D0E06B7008E965827057
:1015A30003EA65837061900210120E82EF2519FF22
:1015B300EE3518FEED3517FDEC3516FCAB1EEB339F
:1015C30095E0FA90021475F007EB120ED7EA75F066
:1015D30007A42583F583120E9AAB1AAA1BA91CAF85
:1015E3001EEF3395E0FE90021875F007EF120ED749
:1015F300EE75F007A42583F583120EEC9002A0E0AC
:0E16030004F0851E1D8005051E021561AF1D39
:0116110022B6
:101C93008F65C3E565648094805003021D22C3E50C
:101CA3006564809494400122AF65EF3395E0FE9024
:101CB300021875F007EF120ED7EE75F007A425830F
:101CC300F583120EE3C003C002C0017B007A0079E2
:101CD30000D082D083D0E06B7008E965827003EA9C
:101CE3006583603B7B007A007900AF65EF3395E055
:101CF300FE90021875F007EF120ED7EE75F007A4E9
:101D03002583F583120EEC9002A0E014F09002A05C
:101D1300E0FFEF700A900210120EA60000000022EE
:0C099B004102D0FF4102CEFF4102CF001C
:0A2A6C009002D074FFF012274922F7
:101DAE007BFF7A1D79AE7F647E007D007C0012156C
:101DBE00159002CEEFF01229F98F669002CFE0FF58
:101DCE00E5666F605AE566120EF51DDF0100001E16
:101DDE000F9002CFE0FFEF70461229B19002D0E0D3
:101DEE00FFC3EF6480948050367BFF7A2A796C7F34
:101DFE00D07E077D007C001215159002D0EFF0808A
:101E0E001E9002D0E0FFC3EF648094804011121F39
:101E1E00AF9002D0E0FF121C939002D074FFF090AE
:051E2E0002CFE566F0A3
:011E3300228C
:1026F800122ABA7BFF7A1D79AE7F647E007D007C4A
:10270800001215159002CEEFF09002CEE0FFC3EF55
:0927180064809480500280FE22CE
:1029F9007567007F001228BBEF7003436701AF675B
:012A090022AA
:042AF4001227FC2287
:082A9A008F68AF68122770225B
:082AA2008F69AF69122793222E
:082AAA008F6AAF6A1227B62201
:082AB2008F6BAF6B122387222A
:1009A700410132FF410206FF410207FF410137FFC4
:1009B700410135004101360041020D0044020200A9
:1009C7000000004201330000420200000060C8013D
:1009D70038000000000000000000000000000000D8
:1009E7000000000000000000000000000000000000
:1009F70000000000000000000000000000000000F0
:100A070000000000000000000000000000000000DF
:100A170000000000000000000000000000000000CF
:100A270000000000000000000000000000000000BF
:100A370000000000000000000000000000000000AF
:100A4700000000000000000000000000000000009F
:100A5700000000000000000000000000000000008F
:100A6700000000000000000000000000000000007F
:100A7700000000000000000000000000000000006F
:100A8700000000000000000000000000000000005F
:100A970000000000000000000041020E00420208B2
:0F0AA700FFFF42020B000041020F0541020A0D42
:10002E0090020674FFF01227D91229C48B4A8A4B0C
:10003E00894CAB4AAA4BA94C758204758300120DEC
:10004E004BFFAEF090020EE0FD04F0ED25E02438FB
:10005E00F582E43401F583EEF0A3EFF090020EE0AA
:10006E00FFEFC39464400590020EE4F0900202127A
:10007E000E827B017A0079007800120D83900202C5
:10008E00120E9A900133E0FEA3E0FFEF4E7014AB18
:10009E004AAA4BA94C758204758300120D4BFFAE14
:1000AE00F08044AB4AAA4BA94C75820475830012AA
:1000BE000D4BFFAEF0E4FCFDC004C005C006C0074A
:1000CE00900133E0FEA3E0FF7C007D1F120F21A8FC
:1000DE0004A905AA06AB07D007D006D005D0041296
:1000EE000D837805120E6F900133EEF0A3EFF07FC3
:1000FE00147E007D007C00900202120E8EC3120E42
:10010E005E506E900200E0FEA3E0FFEF4E7014AB67
:10011E004AAA4BA94C758204758300120D4BFFAE93
:10012E00F08044AB4AAA4BA94C7582047583001229
:10013E000D4BFFAEF0E4FCFDC004C005C006C007C9
:10014E00900200E0FEA3E0FF7C007D07120F21A8C5
:10015E0004A905AA06AB07D007D006D005D0041215
:10016E000D837803120E6F900200EEF0A3EFF08075
:10017E0059AB4AAA4BA94C758204758300120D4BDC
:10018E00FFAEF0900200E0FCA3E0FDD3ED9FEC9EED
:10019E00400D90020074FF75F0FF120D1F802BAB07
:1001AE004AAA4BA94C758204758300120D4BFFAE03
:1001BE00F0900200E0FCA3E0FDC3ED9FEC9E500A20
:1001CE00900200E475F001120D1F120F4E40141232
:1001DE00240B122B06500812296F40031229D61237
:1001EE00213A22122B065008120280500312213A95
:0101FE0022DE
:1028D600122AEC90020FE0FFE4FCFDFE7BFF7A2259
:0B28E600792A121515900132EFF02244
:10222A00122AF0122A88900206E0FFC3EF64809413
:10223A00804008900206E0FF121C937BFF7A007927
:10224A002E7F017E007D007C00121515900206EF9C
:10225A00F090020AE0FFE4FCFDFE7BFF7A2879D6C3
:09226A00121515900132EFF0226B
:100F4E00750900750A00750BFF750CFF750D0075A0
:100F5E000E00750F007510007513007514007508DE
:100F6E0000E508C39464400302103CAF08EF25E08F
:100F7E002438F582E43401F583E0FEA3E0FFEF4E62
:100F8E0070030210370514E51470020513AF08EF55
:100F9E0025E02438F582E43401F583E0FEA3E0FF7A
:100FAE00D3EF950AEE95094015AF08EF25E02438EA
:100FBE00F582E43401F583E0F509A3E0F50AAF0804
:100FCE00EF25E02438F582E43401F583E0FEA3E05A
:100FDE00FFC3EF950CEE950B5015AF08EF25E024EF
:100FEE0038F582E43401F583E0F50BA3E0F50CAFA0
:100FFE0008EF25E02438F582E43401F583E0FEA302
:10100E00E0FFD3EF9470EE940D501CAF08EF25E087
:10101E002438F582E43401F583E0FEA3E0FFC3EF4C
:10102E009428EE94045002050D0508020F6FC3E5D7
:10103E000A950CF512E509950BF511122A364003A7
:10104E000211C6900132E0FFC3EF6480948050031A
:10105E000211C67F647E007D007C00900202120E9B
:10106E008ED3120E5E404F7FC87E007D007C0090B6
:10107E000202120E8ED3120E5E403B900200E0FE74
:10108E00A3E0FF900133E0FCA3E0FDC3ED9FF50F5D
:10109E00EC9EF50EC3E50E64809480500BC3E49570
:1010AE000FF50FE4950EF50ED3E50F94E8E50E94CB
:1010BE0003400343100112289D40030211C67FC84E
:1010CE007E007D007C00900202120E8ED3120E5E08
:1010DE00501912296F50047F2880027F1E8F15E54C
:1010EE000DD39515402A4310028025900133E0FE62
:1010FE00A3E0FFD3EF9470EE940D5011900133E006
:10110E00FEA3E0FFC3EF9428EE94045003431010A7
:10111E007F647E007D007C00900202120E8ED31240
:10112E000E5E50030211C6900208E0FEA3E0FFC35C
:10113E00E5129FE5119E5006AE11AF128008900287
:10114E0008E0FEA3E0FF900208EEF0A3EFF090029D
:10115E000BE0FEA3E0FFD3E5129FE5119E4006AE25
:10116E0011AF12800890020BE0FEA3E0FF90020B7D
:10117E00EEF0A3EFF012296F401EC3E5129490E536
:10118E001194015003431004D3E51294DCE511943D
:10119E000540254310088020900208E0FEA3E0FFE2
:1011AE00900208EEF0A3EFF090020BE0FEA3E0FF3A
:1011BE0090020BEEF0A3EFF0122B095003431040F8
:0711CE00E5106002C322D30B
:0111D50022F7
:10283E00900136E0FF7E007C037DE8120F217BFFC6
:10284E007A28795E121515900207EFF01223C9222D
:10285E0090020DE0FF7E007C037DE8120F217BFFCE
:10286E007A28793E121515900207EFF012254422B0
:10218D0090013774FFF0900135E014F0900135E0C7
:10219D00FFEFD3940040177BFF7A21798D7F607E0E
:1021AD00EA7D007C00121515900137EFF0229002A8
:1021BD0007E0FFC3EF64809480400E900207E0FFBC
:1021CD00121C9390020774FFF012254412240B2267
:1023C900900132E0FFC3EF648094805019122B0012
:1023D9007BFF7A2879D67F007E007D007C0012156C
:1023E90015900132EFF0900206E0FFC3EF6480948C
:1023F90080400E900206E0FF121C9390020674FFC3
:02240900F022BF
:10254400900132E0FFC3EF648094804014122B03A7
:10255400122AF0900132E0FF121C9390013274FFB2
:10256400F0900206E0FFC3EF64809480400E900276
:0D25740006E0FF121C9390020674FFF02297
:0D001E0012248B122A7F12272112213A2270
:10213A00900202120EA600000000900133E4F0A300
:10214A00E4F0900200E4F0A3E4F090020EE4F090D0
:10215A00020874FFF0A374FFF090020BE4F0A3E40A
:10216A00F0756C00E56CC394645017AF6CEF25E012
:10217A002438F582E43401F583E4F0A3E4F0056C35
:02218A0080E2F1
:01218C002230
:1018DC008B4D8A4E894F900207E0FFC3EF648094D2
:1018EC0080400E900207E0FF121C9390020774FFD9
:1018FC00F0900137E0FFC3EF64809480400E9001BC
:10190C0037E0FF121C9390013774FFF0122544ABA3
:10191C004DAA4EA94F758202758300120D4BFFAE76
:10192C00F0900135EFF0AB4DAA4EA94F120C50FFC1
:10193C00900136EFF0AB4DAA4EA94F75820175831D
:10194C0000120C69FF90020DEFF0900136E0FFEFF2
:10195C00D39400404790020DE0FFEFD39400401861
:10196C007BFF7A28793E7F007E007D007C0012157B
:10197C0015900207EFF080031223C9900135E0FFA8
:10198C00EFD3940040167BFF7A21798D7F607EEA3D
:0D199C007D007C00121515900137EFF02240
:102A0A008F5A8D5B90020FE55AF090020AE55BF04F
:012A1A002299
:0C2A2A000000000001000000010000009E
:100AB6004102C6004202C300004202C700004102D2
:060AC600C2FF4102C50061
:062ADB007F01121E3422EF
:1020E3007F00122AB2EFB4010C7F00122AA27F00F4
:1020F300121313800A7F00122A9A7F05121313907A
:1021030002C374FF75F0FF120D1F9002C3E0FEA31C
:10211300E0FFEF4E601A9002C7E0FEA3E0FFE4FC8D
:10212300FD7BFF7A2079E31215159002C2EFF022AE
:072133009002C274FFF022CC
:10201C008F508C518D529002C2E0FFC3EF648094BC
:10202C00805054E550D39400404DD3E5529400E5D4
:10203C0051940040427F00122AA2AF507E00EF253F
:10204C00E0FFEE33FE9002C3EEF0A3EFF0E551C3D8
:10205C0013FEE55213FF9002C7EEF0A3EFF09002CF
:10206C00C7E0FEA3E0FFE4FCFD7BFF7A2079E312DE
:08207C0015159002C2EFF022DD
:10287E001229F99002C5EFF09002C5E0FFEF640156
:0F288E0060057F01121E347D0D7F05122A0A227C
:101FAF009002C2E0FFC3EF64809480505F9002C53F
:101FBF00E4F09002C6E004F09002C6E0FFEFB40137
:101FCF000C7F00122A9A7F0012131380249002C6EE
:101FDF00E0FFEFB4020C7F00122A9A7F0112131355
:101FEF00800F9002C6E4F07F00122AA27F00121326
:101FFF00139002C6E0FF7E04EF8EF0A4FFAEF074E4
:0D200F002A2FF9742A3EFA7BFF1218DC22FA
:1029B1009002C2E0FFC3EF6480948050057F001253
:0329C1001E34229F
:102749009002C2E0FFC3EF6480948050199002C5E3
:10275900E0FFEFB401109002C5E4F07F02121E34CD
:07276900122AE112213A22BD
:0101FF0022DD
:10269B0012299D9002C6E4F07F081213139002C614
:1026AB00E0FF7E04EF8EF0A4FFAEF0742A2FF974D6
:1026BB002A3EFA7BFF1218DC7F02121E347F0012B7
:0326CB002A9A2226
:10240B009002C6E4F07F001213139002C6E0FF7E29
:10241B0004EF8EF0A4FFAEF0742A2FF9742A3EFA63
:10242B007BFF1218DC7BFF7A2A79DB7FF47E017D40
:10243B00007C001215157D587C027F0312201C2294
:020ACC00C10463
:102666009002B8E4F0A3E4F09002B4E4F0A3E4F03E
:102676009002B674FFF0A374FFF09002BC120EA68F
:10268600000000009002BAE4F0A3E4F09002C0E477
:05269600F0A3E4F022B6
:072AC80012293F12266622CD
:092A8800D204122AE7122666228C
:1027D9009002C0E0FEA3E0FFAB07AA06E4F9F89077
:1027E90002BC120E82120DCC9002B8EEF0A3EFF0EB
:0327F900C20422F5
:10141700200403021514122A764003021514122819
:10142700F18E5C8F5D122AE79002C0E475F001121D
:101437000D1F9002BC120E8EAE5CAF5DE4FCFD1278
:101447000D839002BC120E9A9002B4E0FEA3E0FF57
:10145700D3E55D9FE55C9E400A9002B4E55CF0A38E
:10146700E55DF09002B6E0FEA3E0FFC3E55D9FE512
:101477005C9E500A9002B6E55CF0A3E55DF0900231
:10148700BAE0FEA3E0FFEF4E700B9002BAE55CF006
:10149700A3E55DF0229002BAE0FEA3E0FFC3E55D9D
:1014A7009FE55C9E402CAE5CAF5D7C007D03120C1B
:1014B700B89002BAE0FCA3E0FDEF2DFFEE3CFEEF93
:1014C7007802CEC313CE13D8F9FF9002BAEEF0A379
:1014D700EFF09002BAE0FEA3E0FFC3E55D9FE55C95
:1014E7009E502A9002BAE0FEA3E0FF7C007D031223
:1014F7000CB8EF255DFFEE355CFEEF7802CEC31327
:0D150700CE13D8F9FF9002BAEEF0A3EFF07A
:0115140022B4
:1029C4003004087B007A00790080067B017A027962
:0229D400B4222B
:1025F70000000000FF000000FFFF0000FFFF00AA2F
:10260700AAFFFFFFFFFF0000FFFF0000FF0000FF22
:10261700FF0000FFFF00FFFFFFFF03E803E803E8F9
:0826270003E803E803E803E8FF
:100ACE004102A9004102B3FF4102A2FF4102A1FF70
:100ADE004102A8FF4102A7FF4102A6FF4202B10058
:0B0AEE00004202AF00004202AD000019
:10290B008F5E8D5FE55ED3955F4008C3E55E955F97
:0A291B00FF8006C3E55F955EFF2212
:102925008F6DE56D7006E47E007F0022AF6DEFFDD3
:0A2935007C007E147FB4120CCA224D
:1011D6009002A174FFF09002A8E0FFC3EF64809430
:1011E6008040030213129002A7E0FFC3EF648094CD
:1011F6008040030213129002A6E0FFC3EF648094BE
:101206008040030213129002A2E0FF9002B3EFF0B7
:101216009002A2E004F09002A2E0FFC3EF64809483
:101226008740059002A2E4F09002A2E0FFEF33951A
:10123600E0FE90260C75F003EF120ED7EE75F00364
:10124600A42583F583E493FD9002AAE0FF12290BFF
:101256001229259002B1EEF0A3EFF09002A2E0FF72
:10126600EF3395E0FE90260D75F003EF120ED7EEE4
:1012760075F003A42583F583E493FD9002ABE0FFAC
:1012860012290B1229259002AFEEF0A3EFF090027F
:10129600A2E0FFEF3395E0FE90260E75F003EF1205
:1012A6000ED7EE75F003A42583F583E493FD900233
:1012B600ACE0FF12290B1229259002ADEEF0A3EF48
:1012C600F09002B1E0FEA3E0FFE4FCFD7BFF7A169E
:1012D60079121215159002A8EFF09002AFE0FEA366
:1012E600E0FFE4FCFD7BFF7A1779001215159002EA
:1012F600A7EFF09002ADE0FEA3E0FFE4FCFD7BFF6C
:0D1306007A1779EE1215159002A6EFF0226D
:1022BA009002A8E0FF121C939002A7E0FF121C9361
:1022CA009002A6E0FF121C939002A1E0FF121C9359
:1022DA009002A174FFF09002A874FFF09002A77414
:1022EA00FFF09002A674FFF09002A274FFF0900231
:0522FA00B374FFF022A7
:101612009002A2E0FFEF3395E0FE90260C75F003F6
:10162200EF120ED7EE75F003A42583F583E493FF42
:101632009002AAE0FEEE6F706A9002A874FFF0902A
:1016420002A8E0FFC3EF6480948040030216FF907B
:1016520002A7E0FFC3EF6480948040030216FF906C
:1016620002A6E0FFC3EF6480948040030216FF905D
:1016720002A2E0FFEF3395E0FEEF25E0FFEE33FE3E
:1016820074212FF58274263EF583E493FE74019350
:10169200FFE4FCFD7BFF7A1179D61215159002A1A9
:1016A200EFF0229002A2E0FFEF3395E0FE90260CCD
:1016B20075F003EF120ED7EE75F003A42583F583C0
:1016C200E493FF9002AAE0FEEED39F40089002AAA4
:1016D200E014F080069002AAE004F07B017A02791D
:1016E200AA12244B9002B1E0FEA3E0FFE4FCFD7BD2
:0E16F200FF7A1679121215159002A8EFF02259
:101700009002A2E0FFEF3395E0FE90260D75F00306
:10171000EF120ED7EE75F003A42583F583E493FF53
:101720009002ABE0FEEE6F706A9002A774FFF0903B
:1017300002A8E0FFC3EF6480948040030217ED909D
:1017400002A7E0FFC3EF6480948040030217ED908E
:1017500002A6E0FFC3EF6480948040030217ED907F
:1017600002A2E0FFEF3395E0FEEF25E0FFEE33FE4F
:1017700074212FF58274263EF583E493FE74019361
:10178000FFE4FCFD7BFF7A1179D61215159002A1BA
:10179000EFF0229002A2E0FFEF3395E0FE90260DDD
:1017A00075F003EF120ED7EE75F003A42583F583D1
:1017B000E493FF9002ABE0FEEED39F40089002ABB3
:1017C000E014F080069002ABE004F07B017A02792D
:1017D000AA12244B9002AFE0FEA3E0FFE4FCFD7BE5
:0E17E000FF7A1779001215159002A7EFF0227C
:1017EE009002A2E0FFEF3395E0FE90260E75F00317
:1017FE00EF120ED7EE75F003A42583F583E493FF65
:10180E009002ACE0FEEE6F706A9002A674FFF0904C
:10181E0002A8E0FFC3EF6480948040030218DB90BF
:10182E0002A7E0FFC3EF6480948040030218DB90B0
:10183E0002A6E0FFC3EF6480948040030218DB90A1
:10184E0002A2E0FFEF3395E0FEEF25E0FFEE33FE60
:10185E0074212FF58274263EF583E493FE74019372
:10186E00FFE4FCFD7BFF7A1179D61215159002A1CB
:10187E00EFF0229002A2E0FFEF3395E0FE90260EED
:10188E0075F003EF120ED7EE75F003A42583F583E2
:10189E00E493FF9002ACE0FEEED39F40089002ACC2
:1018AE00E014F080069002ACE004F07B017A02793D
:1018BE00AA12244B9002ADE0FEA3E0FFE4FCFD7BF8
:0E18CE00FF7A1779EE1215159002A6EFF022A0
:042AF8001229E82295
:10244B008B538A548955AB53AA54A955120C50FD82
:10245B007F001221DDAB53AA54A9557582017583F8
:10246B0000120C69FD7F011221DDAB53AA54A95553
:10247B00758202758300120C69FD7F021221DD2229
:101313008F6E1222BAE56E700A7BFF7A2579F71277
:10132300244B22E56ED3940240030213F0E56E646E
:101333000160030214169002B3E4F09002A2E4F0F9
:101343009002B3E0FFEF3395E0FE90260C75F003B7
:10135300EF120ED7EE75F003A42583F583E493FF14
:101363009002AAEFF09002B3E0FFEF3395E0FE9016
:10137300260D75F003EF120ED7EE75F003A4258347
:10138300F583E493FF9002ABEFF09002B3E0FFEF3D
:101393003395E0FE90260E75F003EF120ED7EE752F
:1013A300F003A42583F583E493FF9002ACEFF07B75
:1013B300017A0279AA12244B9002B3E0FFEF33952E
:1013C300E0FEEF25E0FFEE33FE74212FF582742655
:1013D3003EF583E493FE740193FFE4FCFD7BFF7A07
:1013E3001179D61215159002A1EFF02222E56EC3F2
:1013F3009403401FE56ED394085018AF6E7E03EF3D
:101403008EF0A4FFAEF074F12FF974253EFA7BFF42
:0414130012244B2232
:100AF9004102CDFF4102C9004102CA004102CB00B7
:040B09004102CC00D9
:0B2A4D00300504122A4222122AC12286
:1022FF009002C9E0FFEF7022D205122A4D7BFF7AC0
:10230F002279FF7FE87E037D007C00121515900275
:10231F00CDEFF09002C9E004F0229002C9E0FFEF88
:10232F00B40110C205122A4D9002CD74FFF0900235
:03233F00C9E4F0FE
:012342002278
:102343009002CAE0FFEF7022D205122A4D7BFF7A7A
:102353002379437F647E007D007C00121515900273
:10236300CDEFF09002CAE004F0229002CAE0FFEF42
:10237300B40110C205122A4D9002CD74FFF09002F1
:03238300CAE4F0B9
:012386002234
:101A6F009002CBE0FFEF601D9002CBE0FFEF64022E
:101A7F0060139002CBE0FFEF640460099002CBE0AB
:101A8F00FFEFB40622D205122A4D7BFF7A1A796F27
:101A9F007F647E007D007C001215159002CDEFF063
:101AAF009002CBE004F0229002CBE0FFEF640160E4
:101ABF00099002CBE0FFEFB40522C205122A4D7B3D
:101ACF00FF7A1A796F7F647E007D007C00121515F6
:101ADF009002CDEFF09002CBE004F0229002CBE029
:101AEF00FFEFB40322C205122A4D7BFF7A1A796FDA
:101AFF007F2C7E017D007C001215159002CDEFF03A
:101B0F009002CBE004F0229002CBE0FFEFB407107D
:101B1F00C205122A4D9002CD74FFF09002CBE4F073
:011B2F002293
:101F37009002CCE0FFEF60099002CCE0FFEFB40223
:101F470022D205122A4D7BFF7A1F79377F647E00E4
:101F57007D007C001215159002CDEFF09002CCE0C9
:101F670004F0229002CCE0FFEFB40122C205122A4E
:101F77004D7BFF7A1F79377F647E007D007C0012DE
:101F870015159002CDEFF09002CCE004F0229002FC
:101F9700CCE0FFEFB40310C205122A4D9002CD74B6
:071FA700FFF09002CCE4F012
:011FAE002210
:042AFC00122A1B225D
:101E34008F6F9002CDE0FFC3EF648094805073E510
:101E44006F6005E56FB403187BFF7A2379437F64E1
:101E54007E007D007C001215159002CDEFF08050BD
:101E6400E56FB401187BFF7A1A796F7F647E007D79
:101E7400007C001215159002CDEFF08033E56FB4AD
:101E840004187BFF7A1F79377F647E007D007C0015
:101E94001215159002CDEFF080167BFF7A2279FFA0
:101EA4007F647E007D007C001215159002CDEFF05A
:041EB400D322C32250
:100B0D0060C0004100000000000000000000000077
:100B1D0000000000000000000000000000000000C8
:100B2D0000000000000000000000000000000000B8
:100B3D0000000000000000000000000000000000A8
:100B4D000000000000000000000000000000000098
:100B5D000000000000000000000000000000000088
:100B6D000000000000000000000000000000000078
:100B7D000000000000000000000000000000000068
:100B8D000000000000000000000000000000000058
:100B9D000000000000000000000000000000000048
:100BAD000000000000000000000000000000000038
:100BBD000000000000000000000000000000000028
:100BCD000000000042003F00006030000E000000F9
:100BDD000000000000000000000000000000000008
:100BED0000000000000000000000000000000000F8
:100BFD000000000000000000000000000060300157
:100C0D0002000000000000000000000000000000D5
:100C1D0000000000000000000000000000000000C7
:100C2D0000000000000000000000000000000000B7
:100C3D000042000C00004101010041003EFFC100D7
:020C4D00C101E3
:092A910090003E74FFF0D2002217
:1020840090003FE4F0A3E4F090010174FEF09000AE
:102094000C74FFF0A374FFF0C200757000E570C308
:1020A40094305037AF70740E2FF582E43400F5830A
:1020B400E4F0AF70EF25E025E02441F582E434003C
:1020C400F583120EA600000000AF7074022FF58293
:0E20D400E43401F583E4F0057080C212272188
:0120E20022DB
:102721007571FF7B007A0079717D0112262FE571A9
:10273100C39408400AE571D39437500330010375FF
:072741007118AF7112298726
:01274800226E
:062AE100D2011220842244
:032B0600A2012207
:10299D001200038F721224C97B007A0079727D01B7
:0329AD00121D23D5
:0129B0002204
:1029D60012208490003EE0FF121C9390003E74FF8C
:0229E600F022DD
:032B0900A2002205
:10028000752500C2061200038F21E521C3940840A2
:10029000F974F82521F521900101E0FFEF600302D8
:1002A00004CD90000CE0FEA3E0FFEF64FF7003EECE
:1002B00064FF603690000CE0FEA3E0FFD3EF9400F3
:1002C000EE940050030208F190000C74FF75F0FFEB
:1002D000120D1F90000CE0FEA3E0FFEF4E60030242
:1002E00008F1C20112269B0208F190003EE0FFC314
:1002F000EF6480948050167BFF7A2A79917F107E7C
:10030000277D007C0012151590003EEFF0AF2174A0
:100310000E2FF582E43400F583E0FFEF600302085E
:10032000F190003FE475F001120D35AFF0FEC3EF20
:10033000940FEE940050561229C48B268A278928E0
:10034000AF21EF25E025E02441F582E43400F58378
:10035000C083C082120E82C004C005C006C007ABB5
:1003600026AA27A928758204758300120D4BFFAEBB
:10037000F0AB07AA06E4F9F8D007D006D005D00400
:10038000120D83D082D083120E9A0208F1AF21742D
:100390000E2FF582E43400F5837401F0852122AF3D
:1003A00021EF25E025E02441F582E43400F58312B5
:1003B0000E827BF77A8F79007800C3120E5E50159B
:1003C000E521D3940040291521E5212408FF1229B5
:1003D00087D206801BAF217E00EF2408FFEE340099
:1003E000FEC3EF9437EE6480948050040521D2065A
:1003F0002006030204C1AF21740E2FF582E43400FD
:10040000F583E0FFEF64016003020497E521D395D3
:10041000224004AF228002AF218F23AF2374022F2A
:10042000F582E43401F583E004F0AF2374022FF584
:1004300082E43401F583E0FFEFC394034021900090
:100440000CE4F0A37464F0E5232408FF12298790DC
:10045000003EE0FF121C9390003E74FFF08008E520
:10046000212408FF122987AF21EF25E025E0244150
:10047000F582E43400F583120EA60000000090001F
:100480003FE4F0A3E4F0AF21740E2FF582E43400D2
:10049000F583E4F00208F190003FE4F0A3E4F0AF4C
:1004A00021EF25E025E02441F582E43400F58312B4
:1004B0000EA600000000E5212408FF12298702088B
:1004C000F190000CE4F0A37464F00208F190003E97
:1004D000E0FFC3EF6480948050167BFF7A2A799105
:1004E0007F107E277D007C0012151590003EEFF0F6
:1004F000AF21740E2FF582E43400F583E0FFEF6046
:100500000302080F90003FE475F001120D35AFF0C3
:10051000FEC3EF9405EE940050561229C48B268A30
:10052000278928AF21EF25E025E02441F582E43436
:1005300000F583C083C082120E82C004C005C006CD
:10054000C007AB26AA27A928758204758300120D5F
:100550004BFFAEF0AB07AA06E4F9F8D007D006D0FF
:1005600005D004120D83D082D083120E9A02080F98
:10057000AF21740E2FF582E43400F5837401F090FE
:100580000101E0FFEF64FE600D900101E0FFEF6408
:1005900002600302080F752400E524C39430400371
:1005A0000206D5AF24740E2FF582E43400F583E003
:1005B000FFEF640160030206D0900004120E8290E7
:1005C0000000120E9A900008120E82900004120E83
:1005D0009AAF24EF25E025E02441F582E43400F5CC
:1005E00083120E82900008120E9A0525E525C39409
:1005F0000350030206D0900101E0FFEF64FE6003A8
:10060000020686900004120E82900008120E8ED30D
:10061000120E5E502F900000120E82900004120EF7
:100620008ED3120E5E501D7FFB7E4F7D007C0090AE
:100630000000120E8EC3120E5E500990010174026A
:10064000F00206D5900004120E82900008120E8E61
:10065000C3120E5E407A900000120E8290000412C7
:100660000E8EC3120E5E40687FFD7E2F7D007C00E3
:10067000900008120E8ED3120E5E50549001017439
:1006800002F08051804A900101E0FFEF6402704067
:10069000900004120E82900008120E8EC3120E5E9D
:1006A000402E900000120E82900004120E8EC31293
:1006B0000E5E401C7FFD7E2F7D007C0090000812A6
:1006C0000E8ED3120E5E400890010174FFF080057B
:1006D0000524020599900101E0FFEF64FE600D9092
:1006E0000101E0FFEF6402600302080F8521247519
:1006F0002500900101E0FFEF3395E0FEAD247C0082
:10070000ED2FFFEC3EFEC3EE6480948050030208A0
:1007100007900101E0FFEF3395E0FEAD247C00ED92
:100720002FFFEC3EFEC3EF9430EE648094804003D4
:10073000020807900101E0FFEF2524F524AF24749F
:100740000E2FF582E43400F583E0FFEF7032E524EC
:100750002408FF12298790003FE4F0A3E4F0AF24BF
:10076000EF25E025E02441F582E43400F583120E04
:10077000A600000000852421D2060208070206F226
:10078000900004120E82900000120E9A900008123F
:100790000E82900004120E9AAF24EF25E025E0248B
:1007A00041F582E43400F583120E82900008120EA7
:1007B0009A0525E525C3940350030206F290000430
:1007C000120E82900008120E8EC3120E5E500302AB
:1007D00006F2900000120E82900004120E8EC312D8
:1007E0000E5E50030206F27FFD7E2F7D007C00909E
:1007F0000008120E8ED3120E5E50030206F2900114
:100800000174FFF00206F2200605122084D2069041
:100810000101E0FFEF64FF60030208F1AF21740EF5
:100820002FF582E43400F583E0FFEF6401600302FA
:1008300008F1AF21EF25E025E02441F582E4340002
:10084000F583120E827BFD7A2F79007800D3120E89
:100850005E404C900101E4F090000C74FFF0A37432
:10086000FFF0752400E524C394305029AF24740EA2
:100870002FF582E43400F583E4F0AF24EF25E02582
:10088000E02441F582E43400F583120EA600000056
:1008900000052480D090003FE4F0A3E4F08052E50E
:1008A00021D394004046900101E0FFEF2521F5217E
:1008B000E5212408FF122987AF21740E2FF582E469
:1008C0003400F583E0FFEF701F90003FE4F0A3E4F5
:1008D000F0AF21EF25E025E02441F582E43400F576
:1008E00083120EA600000000D2068005122084D2DA
:0308F00006A20657
:0108F30022E2
:10289D00900101E0FFEF701490000CE0FEA3E0FF4B
:0E28AD00EF64FF7003EE64FF6002D322C322CB
:0C2A3600900101E0FFEF7002D322C322E8
:10296F00900101E0FFEF700E90000CE0FEA3E0FF7E
:08297F00EF4E7002D322C322C7
:101C130002281DE493A3F8E493A34003F68001F2A2
:101C230008DFF48029E493A3F85407240CC8C333D2
:101C3300C4540F4420C8834004F456800146F6DFA1
:101C4300E4800B01020408102040809008F4E47E35
:101C5300019360BCA3FF543F30E509541FFEE49396
:101C6300A360010ECF54C025E060A840B8E493A35D
:101C7300FAE493A3F8E493A3C8C582C8CAC583CA88
:101C8300F0A3C8C582C8CAC583CADFE9DEE780BE40
:010C4F0000A4
:100C5000BB010689828A83E0225002E722BBFE02A2
:090C6000E32289828A83E49322D5
:100C6900BB010CE58229F582E5833AF583E0225040
:100C790006E92582F8E622BBFE06E92582F8E2228A
:0D0C8900E58229F582E5833AF583E49322A4
:100C9600F8BB010DE58229F582E5833AF583E8F094
:100CA600225006E92582C8F622BBFE05E92582C840
:020CB600F22228
:100CB800EF8DF0A4A8F0CF8CF0A428CE8DF0A42E50
:020CC800FE220A
:100CCA00BC000BBE0029EF8DF084FFADF022E4CC0E
:100CDA00F875F008EF2FFFEE33FEEC33FCEE9DECD7
:100CEA00984005FCEE9DFE0FD5F0E9E4CEFD22ED1D
:100CFA00F8F5F0EE8420D21CFEADF075F008EF2F67
:100D0A00FFED33FD4007985006D5F0F222C398FD57
:050D1A000FD5F0EA22F4
:100D1F00C5F0F8A3E028F0C5F0F8E582158270025F
:060D2F001583E038F022FC
:100D3500A3F8E0C5F025F0F0E58215827002158371
:060D4500E0C838F0E822CE
:100D4B00BB0110E58229F582E5833AF583E0F5F0E6
:100D5B00A3E0225009E92582F886F008E622BBFEC3
:100D6B000AE92582F8E2F5F008E222E5832AF58309
:080D7B00E993F5F0A3E99322CE
:0D0D8300EF2BFFEE3AFEED39FDEC38FC22BF
:100D900075F008758200EF2FFFEE33FECD33CDCC1A
:100DA00033CCC58233C5829BED9AEC99E58298409D
:100DB0000CF582EE9BFEED9AFDEC99FC0FD5F0D67A
:100DC000E4CEFBE4CDFAE4CCF9A88222B800C1B9A4
:100DD0000059BA002DEC8BF084CFCECDFCE5F0CBE2
:100DE000F97818EF2FFFEE33FEED33FDEC33FCEB1B
:100DF00033FB10D703994004EB99FB0FD8E5E4F9D6
:100E0000FA227818EF2FFFEE33FEED33FDEC33FCC2
:100E1000C933C910D7059BE99A4007EC9BFCE99AB6
:100E2000F90FD8E0E4C9FAE4CCFB2275F010EF2FFB
:100E3000FFEE33FEED33FDCC33CCC833C810D707FB
:100E40009BEC9AE899400AED9BFDEC9AFCE899F836
:0E0E50000FD5F0DAE4CDFBE4CCFAE4C8F922C9
:100E5E00EB9FF5F0EA9E42F0E99D42F0E89C45F0EA
:010E6E002261
:100E6F00E8600FECC313FCED13FDEE13FEEF13FF61
:030E7F00D8F12285
:0C0E8200E0FCA3E0FDA3E0FEA3E0FF22E3
:0C0E8E00E0F8A3E0F9A3E0FAA3E0FB22E7
:0C0E9A00ECF0A3EDF0A3EEF0A3EFF022CB
:100EA600A8828583F0D083D082120EBD120EBD12A9
:100EB6000EBD120EBDE473E493A3C583C5F0C583CE
:100EC600C8C582C8F0A3C583C5F0C583C8C582C896
:010ED60022F9
:0C0ED700A42582F582E5F03583F5832226
:090EE300E0FBA3E0FAA3E0F92210
:090EEC00EBF0A3EAF0A3E9F02207
:100EF500D083D082F8E4937012740193700DA3A38C
:100F050093F8740193F5828883E47374029368609F
:060F1500EFA3A3A380DF9F
:060F1B008A838982E47361
:100F2100EC8EF0A4CCC5F0CCCDF8EFA4CEC5F02D5D
:100F3100FDE43CFCE8A42EC8C5F03DFDE43CFCEF1B
:0D0F4100A4FFE5F028FEE43DFDE43CFC22A9
:00000001FF
